:030000000203BB3D
:0C03BB00787FE4F6D8FD75810802037A13
:0C039300EDC454F04401F5907F967E000C
:0C039F00EF4E6007EF1F70F81E80F52283
:100337007FC87E0012036375907F7FC87E0012031B
:100347006375906F7FC87E0012036375905F7FC8E7
:0C0357007E0012036375904F7FC87E008B
:10036300AD07AC06ED4C600E7F707E0012039FED6F
:070373001D70F11C80EE2259
:1003AB00AB07EB600A7FE87E031203631B80F3222B
:1001FB00E4FBFAE4FCFDAF05EFC454F04408120332
:10020B00990DBD00010CED64104C70EA0BBB0001A5
:10021B000AEB64644A70DCE4FAFBE4FCFDAF05EF27
:10022B00C454F044041203990DBD00010CED64108D
:10023B004C70EA0BBB00010AEB64644A70DCE4FA15
:10024B00FBE4FCFDAF05EFC454F044021203990D1F
:10025B00BD00010CED64104C70EA0BBB00010AEB06
:10026B0064644A70DCE4FAFBE4FCFDAF05EF1203B7
:10027B00940DBD00010CED64104C70EF0BBB000135
:07028B000AEB64644A70E114
:010292002249
:1002E800E4FCE4FD1203930DBD10F90CBC64F3E4C7
:1002F800FCE4FDEDC454F044021203990DBD10F363
:100308000CBC64EDE4FCE4FDEDC454F044041203B9
:10031800990DBD10F30CBC64EDE4FCE4FDEDC45490
:0E032800F044081203990DBD10F30CBC64EDF7
:0103360022A4
:10029300E4FBEBC454F04408F5907F907E01120315
:1002A300630BBB10EDE4FBEBC454F04404F5907F07
:1002B300907E011203630BBB10EDE4FBEBC454F01F
:1002C3004402F5907F907E011203630BBB10EDE4B3
:1002D300FBEBC454F04401F5907F907E011203635D
:0402E3000BBB10ED54
:0102E70022F4
:10000300E4F508FB75900F7FF47E0112036375908E
:100013001F7FF47E0112036375902F7FF47E01121C
:10002300036375903F7FF47E0112036375904F7FE6
:10003300F47E0112036375905F7FF47E0112036304
:1000430075906F7FF47E0112036375907F7FF47E5A
:100053000112036375908F7FF47E01120363759021
:100063009F7FF47E011203637590AF7FF47E0112CC
:1000730003637590BF7FF47E011203637590CF7F96
:10008300F47E011203637590DF7FF47E0112036334
:100093007590EF7FF47E011203637590FF7FF47E0A
:0D00A300011203630BEB640260030200070F
:0100B000222D
:10015900E4FBFA75900F12035F75901F12035F7528
:10016900902F12035F75903F12033775908F12031A
:100179005F75909F12035F7590AF12035F7590BF13
:1001890012035F7590FF12035F7590EF12035F759D
:1001990090DF12035F7590CF12035F7590FF120312
:1001A9005F7590EF12035F7590DF12035F7590CF53
:1001B90012035F75908F12035F75909F12035F752D
:1001C90090AF12035F7590BF12033775900F12033A
:1001D9005F75901F12035F75902F12035F75903F33
:1001E90012035F0BBB00010AEB64054A60030201BD
:0101F9005CA9
:0101FA0022E2
:1000B100E4FCE4FBE4FD1203930DBD10F90BBB0A54
:1000C100F3E4FBE4FDEDC454F044021203990DBDC9
:1000D10010F30BBB0AEDE4FBE4FDEDC454F0440462
:1000E1001203990DBD10F30BBB0AEDE4FBE4FDED2A
:1000F100C454F044081203990DBD10F30BBB0AED73
:10010100E4FBE4FDEDC454F044081203990DBD1065
:10011100F30BBB0AEDE4FBE4FDEDC454F04404121F
:1001210003990DBD10F30BBB0AEDE4FBE4FDEDC437
:1001310054F044021203990DBD10F30BBB0AEDE418
:10014100FBE4FD1203930DBD10F90BBB0AF30CEC9C
:07015100640560030200B326
:010158002284
:10037A007F011203AB1200B11202931200031202A0
:09038A00E81201FB12015980EC9C
:00000001FF
