:03000000020C47A8
:0C0C4700787FE4F6D8FD758108020C2CC3
:0C0C0E00EBC454F04401F5907F327E00EE
:100C1A00E4FDFCD3ED9FEC9E50070DBD00010C8056
:010C2A00F2D7
:010C2B0022A6
:10080000E4F9E9C3940574809480400302093FE44D
:10081000FAEAC3940A748094805015E4FBEBC39405
:1008200010748094805006120C0E0B80F00A80E148
:10083000E4FAEAC3940A74809480501BE4FBEBC38F
:10084000941074809480500CEBC454F04402120C49
:10085000140B80EA0A80DBE4FAEAC3940A748094F9
:1008600080501BE4FBEBC3941074809480500CEB1D
:10087000C454F04404120C140B80EA0A80DBE4FA3E
:10088000EAC3940A74809480501BE4FBEBC3941079
:1008900074809480500CEBC454F04408120C140B78
:1008A00080EA0A80DBE4FAEAC3940A7480948050F8
:1008B0001BE4FBEBC3941074809480500CEBC45485
:1008C000F04408120C140B80EA0A80DBE4FAEAC355
:1008D000940A74809480501BE4FBEBC394107480E2
:1008E0009480500CEBC454F04404120C140B80EAB6
:1008F0000A80DBE4FAEAC3940A74809480501BE413
:10090000FBEBC3941074809480500CEBC454F044FF
:1009100002120C140B80EA0A80DBE4FAEAC3940AA0
:10092000748094805015E4FBEBC394107480948021
:0F0930005006120C0E0B80F00A80E1090208023B
:01093F002295
:100BB300E4FBEBC3941074809480500CEBC454F0AA
:100BC3004408120C140B80EAE4FBEBC3941074800A
:100BD3009480500CEBC454F04404120C140B80EAC0
:100BE300E4FBEBC3941074809480500CEBC454F07A
:100BF3004402120C140B80EAE4FBEBC394107480E0
:0A0C030094805006120C0E0B80F0D6
:010C0D0022C4
:100B4100E4F508FBEBC394037480948050637590C3
:100B51000F120C1675901F120C1A75902F120C1A89
:100B610075903F120C1A75904F120C1A75905F1206
:100B71000C1A75906F120C1A75907F120C1A7590E1
:100B81008F120C1A75909F120C1A7590AF120C1AD5
:100B91007590BF120C1A7590CF120C1A7590DF1256
:100BA1000C1A7590EF120C1A7590FF120C1A0B802B
:010BB10093B0
:010BB2002220
:100AAA00E4FAEAC39464748094805015E4FBEBC3BF
:100ABA009410748094805006120C0E0B80F00A80F9
:100ACA00E1E4FAEAC3946474809480501BE4FBEB7B
:100ADA00C3941074809480500CEBC454F0440212F6
:100AEA000C140B80EA0A80DBE4FAEAC3946474808B
:100AFA009480501BE4FBEBC3941074809480500CD8
:100B0A00EBC454F04404120C140B80EA0A80DBE4B0
:100B1A00FAEAC3946474809480501BE4FBEBC39498
:100B2A001074809480500CEBC454F04408120C14D6
:060B3A000B80EA0A80DBDB
:010B40002292
:100A1200E4F583F582E4FAFBAF03EFC454F0440833
:100A2200120C140BBB00010AEB64104A70EAA3E536
:100A3200826464458370DEE4F583F582E4FAFBAFF9
:100A420003EFC454F04404120C140BBB00010AEB74
:100A520064104A70EAA3E5826464458370DEE4F5BB
:100A620083F582E4FAFBAF03EFC454F04402120CA4
:100A7200140BBB00010AEB64104A70EAA3E582641E
:100A820064458370DEE4F583F582E4FAFBAF03EF9D
:100A9200120C0F0BBB00010AEB64104A70EFA3E5C6
:070AA200826464458370E3E8
:010AA900222A
:10094000E4FBFA75900F120C1675901F120C1A75B5
:10095000902F120C1A75903F120C1A75907F120C82
:100960001A75906F120C1A75905F120C1A75904FD1
:10097000120C1A75908F120C1A75909F120C1A7522
:1009800090AF120C1A7590BF120C1A7590FF120CD2
:100990001A7590EF120C1A7590DF120C1A7590CF21
:1009A000120C1A7590FF120C1A7590EF120C1A7532
:1009B00090DF120C1A7590CF120C1A75908F120CD2
:1009C0001A75909F120C1A7590AF120C1A7590BF81
:1009D000120C1A75907F120C1A75906F120C1A7502
:1009E000905F120C1A75904F120C1A75900F120C22
:1009F0001A75901F120C1A75902F120C1A75903FD1
:100A0000120C1A0BBB00010AEB64054A60030209D1
:010A100043A2
:010A110022C2
:100C2C007F147E00120C1A120800120BB3120B4127
:0B0C3C00120AAA120A1212094080ECF2
:00000001FF
