:03000000020C6D82
:0C0C6D00787FE4F6D8FD75810A020C5275
:0C0C3400EBC454F04401F5907FFA7E0000
:100C4000E4FDFCC3ED9FEC9E50070DBD00010C8040
:010C5000F2B1
:010C51002280
:10080000E4F9E9C3940574809480400302093FE44D
:10081000FAEAC3940A748094805015E4FBEBC39405
:1008200010748094805006120C340B80F00A80E122
:10083000E4FAEAC3940A74809480501BE4FBEBC38F
:10084000941074809480500CEBC454F04402120C49
:100850003A0B80EA0A80DBE4FAEAC3940A748094D3
:1008600080501BE4FBEBC3941074809480500CEB1D
:10087000C454F04404120C3A0B80EA0A80DBE4FA18
:10088000EAC3940A74809480501BE4FBEBC3941079
:1008900074809480500CEBC454F04408120C3A0B52
:1008A00080EA0A80DBE4FAEAC3940A7480948050F8
:1008B0001BE4FBEBC3941074809480500CEBC45485
:1008C000F04408120C3A0B80EA0A80DBE4FAEAC32F
:1008D000940A74809480501BE4FBEBC394107480E2
:1008E0009480500CEBC454F04404120C3A0B80EA90
:1008F0000A80DBE4FAEAC3940A74809480501BE413
:10090000FBEBC3941074809480500CEBC454F044FF
:1009100002120C3A0B80EA0A80DBE4FAEAC3940A7A
:10092000748094805015E4FBEBC394107480948021
:0F0930005006120C340B80F00A80E10902080215
:01093F002295
:100B4500E4FBEBC39410748094805012EBC454F012
:100B55004401F5907F2C7E01120C400B80E4E4FBF0
:100B6500EBC39410748094805012EBC454F044028B
:100B7500F5907F2C7E01120C400B80E4E4FBEBC367
:100B85009410748094805012EBC454F04404F59092
:100B95007F2C7E01120C400B80E4E4FBEBC3941028
:100BA500748094805012EBC454F04408F5907F2C67
:080BB5007E01120C400B80E4EC
:010BBD002215
:100BBE00E4F508FBEBC39403748094805067759042
:100BCE000F7F2C7E01120C4075901F120C407590F9
:100BDE002F120C4075903F120C4075904F120C4026
:100BEE0075905F120C4075906F120C4075907F12CD
:100BFE000C4075908F120C4075909F120C407590A2
:100C0E00AF120C407590BF120C407590CF120C4075
:100C1E007590DF120C407590EF120C407590FF121C
:050C2E000C400B808F5B
:010C3300229E
:100AAE00E4FAEAC39464748094805015E4FBEBC3BB
:100ABE009410748094805006120C340B80F00A80CF
:100ACE00E1E4FAEAC3946474809480501BE4FBEB77
:100ADE00C3941074809480500CEBC454F0440212F2
:100AEE000C3A0B80EA0A80DBE4FAEAC39464748061
:100AFE009480501BE4FBEBC3941074809480500CD4
:100B0E00EBC454F04404120C3A0B80EA0A80DBE486
:100B1E00FAEAC3946474809480501BE4FBEBC39494
:100B2E001074809480500CEBC454F04408120C3AAC
:060B3E000B80EA0A80DBD7
:010B4400228E
:100A1600E4F583F582E4FAFBAF03EFC454F044082F
:100A2600120C3A0BBB00010AEB64104A70EAA3E50C
:100A3600826464458370DEE4F583F582E4FAFBAFF5
:100A460003EFC454F04404120C3A0BBB00010AEB4A
:100A560064104A70EAA3E5826464458370DEE4F5B7
:100A660083F582E4FAFBAF03EFC454F04402120CA0
:100A76003A0BBB00010AEB64104A70EAA3E58264F4
:100A860064458370DEE4F583F582E4FAFBAF03EF99
:100A9600120C350BBB00010AEB64104A70EFA3E59C
:070AA600826464458370E3E4
:010AAD002226
:10094000E4FBFA75900F7FF47E01120C4075901F46
:10095000120C4075902F120C4075903F120C407590
:10096000907F120C4075906F120C4075905F120CC6
:100970004075904F120C4075908F120C4075909FEF
:10098000120C407590AF120C407590BF120C407560
:1009900090FF120C407590EF120C407590DF120C16
:1009A000407590CF120C407590FF120C407590EF7F
:1009B000120C407590DF120C407590CF120C4075F0
:1009C000908F120C4075909F120C407590AF120CD6
:1009D000407590BF120C4075907F120C4075906F5F
:1009E000120C4075905F120C4075904F120C4075C0
:1009F000900F120C4075901F120C4075902F120C26
:100A00004075903F120C400BBB00010AEB64054A95
:050A1000600302094330
:010A150022BE
:100C52007FE87E03120C40120800120B45120BBEF5
:0B0C6200120AAE120A1612094080ECC4
:00000001FF
